:020000040000FA
:1000000015C000000000000015C2FF91EF91BF91E4
:10001000AF916F915F914F913F912F911F910F91F0
:10002000FF900F900F910FBF0F911895FF240FEDC8
:100030000DBF00C0F0926700F09268009E7FF092C2
:100040006900F0926A00F0927100F0927200AF2C99
:10005000BF2CF0926400F0926500C0E0D0E0CF2C9D
:10006000DF2CF0926B00F0926C00F0926000F09246
:1000700061009D7F70E080E0F0926600EF2C8A982E
:100080008B988C9AB898B998BA9ABC98BD98BE9833
:1000900092989398C098C198C498C598C698479864
:1000A0004398689409B706F909BFE8940EB502F9B8
:1000B0000EBDE8940EB501F90EBD68940EB500F9B9
:1000C0000EBD68940EB503F90EBDFBBC03E60ABD78
:1000D000689409B706F909BF78949B7FF092620093
:1000E000F0926300F0926D00F0926E00F0926F005B
:1000F000F092700008E009B900E002B902E40BB91F
:1001000006E003B908E10AB9949AFF2D5F99FCB1A2
:10011000F09366000091660010E301130DC0EF2C10
:10012000F3E52CD2F4E52AD2FFE428D2F0E526D27A
:10013000FAE024D2949A25C00091660011E30113DD
:100140000EC001E0E02EF4E419D2F1E417D2F4E598
:1001500015D2F1E413D2FAE011D2949812C00091B2
:10016000660012E301130DC002E0E02EF4E406D2B3
:10017000F9E404D2F1E402D2F7E400D2FAE0FED1CD
:100180009498009167001091680020E030E0021719
:1001900013074FB741FF25C0B49908C0F2E4EED170
:1001A000F4E5ECD1F1E3EAD1FAE0E8D1B59908C081
:1001B000F2E4E4D1F4E5E2D1F2E3E0D1FAE0DED119
:1001C000B69908C0F2E4DAD1F4E5D8D1F3E3D6D198
:1001D000FAE0D4D108E80093670003E100936800D7
:1001E0000CC0009167001091680021E030E0021B14
:1001F000130B0093670010936800072F182F20E659
:100200003AEE021713074FB740FD0AC070E68AEEB8
:10021000F0926000F0926100F0926B00F0926C003E
:100220000C2D1D2D20E63AEE021713074FB740FDA7
:100230000AC0F0926400F0926500AF2CBF2C00E67B
:10024000C02E0AEED02E009162001091630020E5CE
:1002500033EC021713074FB740FD0AC000E50093C7
:10026000620003EC00936300F0926F00F092700064
:100270000E2D11E0011347C090FF44C000916000B3
:100280001091610020E63AEE021713074FB740FFC6
:1002900039C0849A8C9A0A2D1B2D20EF30E020174C
:1002A00031074FB740FF0DC00A2D1B2D20EE3EE257
:1002B000021713074FB740FF04C0A0926400B0922A
:1002C0006500709060008090610025D1A1E0B0E0F1
:1002D0005ED1FBE353D170906400809065001BD128
:1002E000A1E0B0E054D1FBE349D170906F00809061
:1002F000700011D1A1E0B0E04AD1FBE33FD1FAE0B8
:100300003DD19E7F6AC00E2D12E0011366C00091A0
:10031000690010916A0028EE33E0021713074FB707
:1003200040FD50C0F0926900F0926A00849A8C9A65
:100330000A2D1B2D28EC30E0201731074FB740FF66
:100340000DC00A2D1B2D20EE3EE2021713074FB7FA
:1003500040FF04C0A0926400B0926500009160006C
:100360001091610020E63AEE021713074FB740FFE5
:1003700008C00091600000936B0000916100009341
:100380006C0070906B0080906C00C5D0A1E0B0E074
:10039000FED0FBE3F3D07090640080906500BBD08A
:1003A000A1E0B0E0F4D0FBE3E9D070906F00809062
:1003B0007000B1D0A1E0B0E0EAD0FBE3DFD0FAE01A
:1003C000DDD00BC00091690010916A00039509F41B
:1003D00013950093690010936A0092FD15C0009177
:1003E0006D0010916E0024E833E0201731074FB7FD
:1003F00040FF0AC0F0926200F0926300F0926D003C
:10040000F0926E00946014C00091620000936F003F
:10041000009163000093700000916D0010916E00D8
:10042000039509F4139500936D0010936E00C29824
:100430006CCEFFCF0F930FB70F930F92FF920F93D6
:100440001F932F933F934F935F936F93AF93BF93FC
:10045000EF93FF93459B01C09B7F92FF0CC0C29A14
:100460000091620010916300039509F413950093C5
:10047000620010936300829916C091FD0DC09260D6
:1004800001E010E0070F181F009360001093610057
:1004900070E080E0916006C001E010E0070F181FD7
:1004A000702F812F07C001E010E0070F181F702F79
:1004B000812F9D7F839B21C00C2F1D2F24EB30E0CB
:1004C000201731074FB740FF0BC0C0E0D0E001E07C
:1004D00010E00C0D1D1DA02EB12ECF2CDF2C0CC05A
:1004E00001E010E00C0D1D1DC02ED12E01E010E02A
:1004F0000C0F1D1FC02FD12F0CC001E010E00C0D00
:100500001D1DC02ED12E01E010E00C0F1D1FC02FAD
:10051000D12F7BCDFFCFE1E0FF2DE894472D582D63
:1005200020E137E20DD028EE33E00AD024E630E0B7
:1005300007D02AE030E004D0042E09D0F0820895DC
:10054000042F152F08D0002E0F1068941EF400E31E
:10055000000E019208954427551B61E1001F111FF1
:100560006A9509F40895441F551F421B530B20F44C
:10057000420F531F8894F2CF0894F0CF5D9BFECFBB
:10058000FCB908955F9BFECFFCB10895D001FD91A9
:0C0590000D01FF7F09F40895F1DFF8CFA2
:00000001FF
